:020000040000FA
:020000000528D1
:080008009229831603138230D4
:100010008600831603138501831603138701831655
:100020000313880183160317880189019630A10004
:100030007221A00188018701B101831203138B0192
:100040008B178B15831603138030960083120313CE
:100050008601D93081006430A20001308A007E21FF
:1000600085006B2183120313861832283728FE304F
:1000700087007E30880089218130870042308800E7
:1000800089217F308700813088008921A10B3728A2
:10009000880187019630A100FE3087007E308800FD
:1000A0008921813087004230880089217F30870094
:1000B000813088008921003087000830880089213C
:1000C000BF308700083088008921DF30870010307A
:1000D00088008921EF308700203088008921A10B1A
:1000E0004C28880187019630A1006B21FE308700E3
:1000F0007E30880089218130870042308800892144
:100100007F3087008130880089216D3087003C3046
:10011000880089219F308700043088008921F330CE
:100120008700203088008921A10B76286B2196302A
:10013000A10088018701FE3087007E308800892178
:10014000813087004230880089217F3087008130EC
:1001500088008921013087000430880089216D30B2
:1001600087003C3088008921A10B9B286B219630A9
:10017000A10088018701FE3087007E308800892138
:10018000813087004230880089217F3087008130AC
:10019000880089210F308700243088008921E130D0
:1001A0008700043088008921EF30870038308800CC
:1001B0008921A10BBB286B219630A1008801870102
:1001C000FE3087007E3088008921813087004230F0
:1001D000880089217F3087008130880089210F3095
:1001E0008700203088008921F030870004308800A3
:1001F00089216D3087003C3088008921A10BE028DF
:100200006B219630A10088018701FE3087007E3087
:1002100088008921813087004230880089217F3021
:1002200087008130880089210130870020308800D4
:1002300089216D3087003C3088008921F3308700A8
:10024000043088008921A10B05296B219630A1007B
:1002500088018701FE3087007E3088008921813047
:1002600087004230880089217F30870081308800F4
:100270008921003087000430880089217F30870081
:100280003C3088008921A10B2A299630A1008801E1
:100290008701FE3087007E30880089218130870009
:1002A0004230880089217F30870081308800892191
:1002B00000308700243088008921723087003C306C
:1002C00088008921A10B4929880187019630A10066
:1002D000880187013228A301A401A40B6D29A30B77
:1002E0006C290800A701A801A901AA01AB01AC0172
:1002F000AD01AE01AF010130B000080082073F340C
:1003000006345B344F3466346D347D3407347F34C7
:1003100067349C30A5000230A600A50B8D29A60BE2
:100320008D2908000B189529AB298615B00A3009CC
:10033000F63C031DA42901308A00B00030087E215C
:10034000B20032088500AB2901308A0030087E21D6
:10035000B200320885000B106B21861109000130B4
:1003600030020319A70A023030020319A80A033029
:1003700030020319A90A043030020319AA0A053011
:1003800030020319AB0A063030020319AC0A0730F9
:1003900030020319AD0A083030020319AE0A0930E1
:1003A00030020319AF0A080086180800FE308700E3
:1003B0007E30880089218130870042308800892181
:1003C0007F30870081308800892100308700083025
:1003D00088008921BF308700083088008921DF30FC
:1003E0008700103088008921EF3087002030880096
:1003F0008921A10BD42988018701FA30A100AF21FE
:100400006B21080086180800FE3087007E308800C7
:100410008921813087004230880089217F30870020
:100420008130880089216D3087003C308800892127
:100430009F308700043088008921F3308700203006
:1004400088008921A10B022A6B21FA30A100AF217B
:1004500088018701080086180800FE3087007E307A
:1004600088008921813087004230880089217F30CF
:10047000870081308800892101308700043088009E
:1004800089216D3087003C3088008921A10B2B2AFF
:100490006B21AF21FA30A10088018701080086187E
:1004A0000800FE3087007E30880089218130870077
:1004B0004230880089217F3087008130880089217F
:1004C0000F308700243088008921E1308700043014
:1004D00088008921EF308700383088008921A10BFE
:1004E0004F2A6B21FA30A100AF2188018701080053
:1004F00086180800FE3087007E3088008921813010
:1005000087004230880089217F3087008130880051
:1005100089210F308700203088008921F030870042
:100520000430880089216D3087003C3088008921A3
:10053000A10B782A6B21FA30A100AF218801870135
:10054000080086180800FE3087007E308800892168
:10055000813087004230880089217F3087008130D8
:1005600088008921013087002030880089216D3082
:1005700087003C3088008921F330870004308800F0
:100580008921A10BA12A6B21FA30A100AF2188019A
:100590008701080086180800FE3087007E3088003A
:1005A0008921813087004230880089217F3087008F
:1005B000813088008921003087000430880089213B
:1005C0007F3087003C3088008921A10BCA2AFA308D
:1005D000A100AF2188018701080086180800FE30BD
:1005E00087007E3088008921813087004230880072
:1005F00089217F3087008130880089210030870081
:10060000243088008921723087003C30880089219D
:10061000A10BED2A88018701FA30A100880187012A
:020620000800D0
:02400E00F43F7D
:00000001FF
