:020000040000FA
:020000000628D0
:0800080005283D2883160317AB
:1000100088018901A501A301A101A40126201D20B9
:100020003120112882073F3406345B344F34663464
:100030006D347D3407347F346734831203138B01AE
:100040008B170B168B166430A3000800831603135E
:100050008701831603133F30860083120313870141
:1000600008008312031381018316031307308100F4
:1000700083120313D930810008002508031D4A2884
:1000800021081220A20022080617861787000613EF
:10009000A509532824081220A6002608061786174B
:1000A00087008613A509A30B6328A10A0A30210241
:1000B000031D6128A101A40A0A302402031D61283E
:0E00C000A4016430A3000B11D83081000900A8
:02400E00F13F80
:00000001FF
