:020000040000FA
:020000000628D0
:0800080005285B28831603178D
:1000100088018901A701A501A301A60135202D2092
:10002000432013201128861A16284F200800A20109
:10003000A101A10B1928A20B1828080017201720CE
:100040001720080082073F3406345B344F3466348F
:100050006D347D3407347F346734831203138B018E
:100060008B178B166430A5000800831603138701D5
:10007000831603133F308600831203138601831215
:1000800003138701080083120313810183160313EE
:100090000730810083120313D930810008001E202D
:1000A000231023082220A40024080617861787009F
:1000B0000613A70908002708031D68282308222023
:1000C000A40024080617861787000613A7097128BD
:1000D00026082220A80028080617861787008613FE
:1000E000A709A50B8128A30A0A302302031D7F2834
:1000F000A301A60A0A302602031D7F28A601643048
:0A010000A5000B11D83081000900A2
:02400E00F13F80
:00000001FF
